:060000000C944D000C946D
:1000060000000C9400000C9400000C9400000C946A
:1000160000000C9400000C9400000C9400000C945A
:1000260000000C9400000C9400000C9400000C944A
:1000360000000C9400000C9400000C9400000C943A
:1000460000000C9400000C9400000C9400000000CA
:1000560000FFFF00000000FFFF0C0C0F0F0000FE6A
:10006600FE080E080E0E1E1E18D8D8181E1E0030CA
:10007600604040603F0070404040405C5D7CFEFD5B
:10008600FBF7EFDFBF7F30006801540008009801DE
:1000960084000000F894EE27ECBBF1E0FBBFEBBF59
:1000A600E5BFF8E1F1BDE1BD8DE0A2E0BB27ED9330
:1000B6008A95E9F780E094E0A0E6ED930197E9F7E9
:1000C600ECE8F0E085919591009761F0A591B591E6
:1000D60005901590BF01F00105900D920197E1F78B
:1000E600FB01F0CFEFE5EDBFE4E0EEBFC0E6D1E007
:1000F6000C947D002297E0E0E883E98300E010E0BD
:1001060020E030E040E050E0EFEFEABBE7BB40E044
:1001160050E04630E0E05E0710F00C94DD00A8E009
:10012600A49FF001A59FF00DE883F983A8E0A49FA2
:10013600F001A59FF00D3796A881B981EA17FB0754
:1001460070F0A05ABE4FE881F981E859FE4FE08170
:10015600EC93E881F9813196E883F983E7CF20E0D3
:1001660030E02630E0E03E0710F500E010E0083011
:10017600E0E01E07C8F4A0E6B1E0A00FB11FEC91C5
:10018600EBBBA8E9B1E0A00FB11FEC91E8BBE5E03D
:10019600F0E0FA93EA930E94DF00E0E0EBBBEFEFBA
:1001A600E8BB0F5F1F4FE3CF2F5F3F4FDACF4F5FA5
:1001B6005F4FAFCFACCFFFCFE991F991309639F0D1
:1001C60080ED97E00197F1F7A8953197C9F7089563
:00000001FF
