:080000000C947E010C94000039
:100008000C9400000C9400000C9400000C94000068
:100018000C9400000C9400000C9400000C94000058
:100028000C9400000C9400000C9400000C94F8024E
:100038000C9400000C9400000C9400000C94000038
:100048000C9400000C9400000C94000001020304BE
:1000580005060708090A0B0C0D0E0F001027E80308
:1000680064000A0001000010000110000100386C53
:100078006D396E663B00103C5030181478103844C7
:100088009AAAAA9C40380000082A1C2A0800006482
:10009800A8A85616260008142241000000000018DF
:1000A800180000000008080810000A0A3F14147E0F
:1000B8002828205050507088880078444478444458
:1000C800780038444040404438007844444444442C
:1000D80078007C40407840407C007C40407840403C
:1000E80040003844404C444438004444447C444430
:1000F80044000038101010103800001010101010B4
:100108009060444850684844440040404040404063
:100118007C0082C6C6AAAAAA9200446464544C4CC5
:1001280044003844444444443800704848704040CF
:10013800400038444444544C38047844447848488F
:1001480044003048403008483000F8202020202063
:1001580020004444444444443800828244442828CB
:1001680010000092AAAAAAAA440000282810102861
:1001780028000022141408080800003E0408102073
:100188003E001C2222222222221C000818080808ED
:1001980008000038280818303800003C040C0424F3
:1001A800180000040C0C141E0400001C2038042441
:1001B8001800001C203824241800003804081010E7
:1001C8001000003C241824241800001824241C04BF
:1001D800380001002D4E414E00494E4600000700F0
:1001E80068027600080070027E0008007802860027
:1001F800070080028E000700880296000400900223
:100208009E0007009802A2000700A002AA000800AA
:10021800A802B2000700B002BA000700B802C20084
:100228000700C002CA000700C802D2000700D002B7
:10023800DA000700D802E2000700E002EA0007003F
:10024800E802F2000700F002FA000800F8020201D2
:10025800070000030A010700080312010700100342
:100268001A01070018032201070020032A010700CA
:1002780028033201080030033A010700380342011D
:10028800070040034A0107004803520107005003D2
:100298005A01070058036201070060036A0107005A
:1002A80068037201070070037A010700780382016E
:1002B800080080038A010700880392010700900361
:1002C8009A0107009803A2010700A003AA010700EA
:1002D800A803B2010700B003BA010700B803C201BE
:1002E8000700C003CA010700C803D2010100E305E3
:1002F800DA010000F894EE27ECBBF1E0FBBFEBBF9E
:10030800E5BF8DE0A2E0BB27ED938A95E9F780E091
:1003180098E0A0E6ED930197E9F7E6EEF1E0859124
:100328009591009761F0A591B59105901590BF0141
:10033800F00105900D920197E1F7FB01F0CFEFE591
:10034800EDBFE8E0EEBFC0E6D2E00C94EE04AA935D
:100358000E944C06A13419F4E0EBF2E03FC10E9480
:100368004C06A23419F4E8EBF2E038C10E944C06BE
:10037800A33419F4E0ECF2E031C10E944C06A43435
:1003880019F4E8ECF2E02AC10E944C06A53419F4ED
:10039800E0EDF2E023C10E944C06A63419F4E8ED22
:1003A800F2E01CC10E944C06A73419F4E0EEF2E01A
:1003B80015C10E944C06A83419F4E8EEF2E00EC10B
:1003C8000E944C06A93419F4E0EFF2E007C10E943C
:1003D8004C06AA3419F4E8EFF2E000C10E944C067A
:1003E800AB3419F4E0E0F3E0F9C00E944C06AC34F9
:1003F80019F4E8E0F3E0F2C00E944C06AD3419F4B9
:10040800E0E1F3E0EBC00E944C06AE3419F4E8E1F9
:10041800F3E0E4C00E944C06AF3419F4E0E2F3E0E4
:10042800DDC00E944C06A03519F4E8E2F3E0D6C01E
:100438000E944C06A13519F4E0E3F3E0CFC00E9416
:100448004C06A23519F4E8E3F3E0C8C00E944C0654
:10045800A33519F4E0E4F3E0C1C00E944C06A435CA
:1004680019F4E8E4F3E0BAC00E944C06A53519F483
:10047800E0E5F3E0B3C00E944C06A63519F4E8E5C0
:10048800F3E0ACC00E944C06A73519F4E0E6F3E0AF
:10049800A5C00E944C06A83519F4E8E6F3E09EC012
:1004A8000E944C06A93519F4E0E7F3E097C00E94D2
:1004B8004C06AA3519F4E8E7F3E090C00E944C0610
:1004C800A03319F4E0E8F3E089C00E944C06A13398
:1004D80019F4E8E8F3E082C00E944C06A23319F44C
:1004E800E0E9F3E07BC00E944C06A33319F4E8E985
:1004F800F3E074C00E944C06A43319F4E0EAF3E078
:100508006DC00E944C06A53319F4E8EAF3E066C012
:100518000E944C06A63319F4E0EBF3E05FC00E949A
:100528004C06A73319F4E8EBF3E058C00E944C06D8
:10053800A83319F4E0ECF3E051C00E944C06A9334B
:1005480019F4E8ECF3E04AC00E944C06A33219F40F
:10055800E8EAF2E043C00E944C06AC3219F4E0EA43
:10056800F2E03CC00E944C06AE3219F4E8E9F2E031
:1005780035C00E944C06AE3519F4E0E9F2E02EC011
:100588000E944C06A53219F4E8E8F2E027C00E9460
:100598004C06AA3219F4E0E8F2E020C00E944C06AA
:1005A800A03419F4E8E7F2E019C00E944C06A4321E
:1005B80019F4E0E7F2E012C00E944C06A63219F4E2
:1005C800E8E6F2E00BC0E881A981BA81F0E0AE0F5D
:1005D800BF1FEC91E03019F4E0E6F2E02F0123961A
:1005E8000895E6B3EF7008950A921A92FA926A9300
:1005F8007A938A939A93AA93BA93EA93FA93EFB762
:10060800EA93ECB1E093D203A091D503A13009F0AD
:10061800B8C0A091D203AB37E9F4E0E0E093D3038C
:10062800E093D4030E945406A091DA05A13089F41E
:100638000E945E060E946306EAEDF4E0FA93EA93EC
:100648000E946306E0E0E093DC05E093DD05E093BB
:10065800DA0597C0A091D203AF3FE9F5E1E0E09356
:10066800D3030E945406E091DD05E093DE05E09196
:10067800DC05E093DB05E091DD05A091DB05EA17D9
:1006880048F1A091DC05B0E0A652BC4FE091DB0533
:10069800F0E0E652FB4FE081EC93E091DC05EF5F80
:1006A800E093DC05E091DE05EF5FE093DE05E09185
:1006B800DD05A091DE05EA1718F4E0E0E093DE0519
:1006C800A091DC05AF3F18F0E0E0E093DC050E9464
:1006D8006906D1CF56C0A091D203AD3709F042C008
:1006E800A091D303A13099F1E0E0E093DB05E0911C
:1006F800D403A091DB05EA1748F1E091DB05F0E0AF
:10070800EA52FC4FA081A03011F0A73009F412C0C2
:10071800A091DD05B0E0A652BB4FE091DB05F0E00B
:10072800EA52FC4FE081EC93E091DD05EF5FE09346
:10073800DD0502C00E946906A091DD05AF3F18F0F3
:10074800E0E0E093DD050E946906D1CF07C0A091E3
:10075800D303A13019F4E1E0E093DA05E0E0E09397
:10076800D5030FC0A091D203AA3059F0E091D40369
:10077800F0E0EA52FC4FA083E091D403EF5FE093EE
:10078800D4032FDFA091D203EA1719F4E1E0E09334
:10079800D503E991EFBFF991E991B991A99199919F
:1007A800899179916991F9901990099018951A93FE
:1007B8000A9310E016DFE13009F07AC00E946F0654
:1007C8000F3F20F40E947D060F5FFACF0E94860635
:1007D8000F3F20F40E947D060F5FFACF0E94940617
:1007E8000F3F20F40E947D060F5FFACF0E94A206F9
:1007F8000F3F20F40E947D060F5FFACFE0E6F2E09B
:100808000E94B0060F3F20F40E947D060F5FFACFCA
:10081800E8E0F3E00E94BC060E94C1060F3F20F406
:100828000E947D060F5FFACF0E94C906E0E6F2E05B
:100838005F01E0ECF2E06F0100E00F3F20F40E945E
:100848007D060F5FFACF0E94D0060E94DA060F3F9E
:1008580020F40E947D060F5FFACF0E94DF060F3F4B
:1008680020F40E947D060F5FFACF0E94ED060E94D9
:10087800F0060F3F20F40E947D060F5FFACF0E941A
:10088800ED060E94F8060F3F20F40E947D060F5FD8
:10089800FACF0E94ED060E940007153048F400E0E8
:1008A8000F3F20F40E947D060F5FFACF1F5FF5CF40
:1008B80098DEE23009F08BC00E94ED060E94000726
:1008C800143048F400E00F3F20F40E947D060F5FCB
:1008D800FACF1F5FF5CF0E946F060F3F20F40E94EA
:1008E8007D060F5FFACF0E9486060F3F20F40E9414
:1008F8007D060F5FFACF0E9494060F3F20F40E94F6
:100908007D060F5FFACF0E94A2060F3F20F40E94D7
:100918007D060F5FFACFE8E0F3E00E94B0060F3FD4
:1009280020F40E947D060F5FFACFE8E0F3E03F0174
:10093800E8E0F3E04F010E94C1060F3F20F40E9457
:100948007D060F5FFACF0E94C906E8E0F3E05F0179
:10095800E0ECF2E06F0100E00F3F20F40E947D061A
:100968000F5FFACF0E94D006E8E0F3E06F0100E0E5
:100978000F3F20F40E947D060F5FFACF0E94DF062A
:100988000F3F20F40E947D060F5FFACF0E94ED060C
:100998000E94F0060F3F20F40E947D060F5FFACFF9
:1009A8000E94ED060E94F8060F3F20F40E947D0683
:1009B8000F5FFACF0E94ED06E0E6F2E05F010E94C9
:1009C800DA060F3F20F40E947D060F5FFACF0991E7
:1009D8001991089510E031E040E050E0EFEFE4BBFA
:1009E800EABBE0EFE7BBE0E0EBB9E0E9EAB9E6E84B
:1009F800E0BDE0E0E0BDE3E3E9B97894A091DA0571
:100A0800A13009F004C130E00E94ED06E0E6F2E012
:100A18005F010E94DA060F3F48F4E02FF0E0E6524B
:100A2800FC4FE081E03011F00F5FF5CF402F5527E4
:100A38004093E0054530E0E05E0708F44FC0FA0156
:100A48000E944707AF0120E0FA01A22FB0E0AE17DD
:100A5800BF0798F50E945E06E22FEE0FEE0FAE2F4D
:100A68000E940807E22FEE0FEE0FEF5FAE2F0E94F5
:100A78000E07E22FEE0FEE0FEE5FAE2F0E94140767
:100A88000E945E06E22FEE0FEE0FED5FAE2F5FDCE9
:100A980062014424552400E0053048F410E01F3F6B
:100AA80020F40E947D061F5FFACF0F5FF5CF0E94EA
:100AB800ED060E941A072F5FC7CFE42FEE0FEE0F47
:100AC800E093D103E093DF05A091E005BB27F0E0B8
:100AD800AE1BBF0BAD01E1E0E093D003A091D003C2
:100AE800A130E9F5E3E0F0E0E417F50781F40E94AE
:100AF8005E06A091D1030E940807A091D103AF5FC1
:100B08000E940E07A091D103AE5F0E941407E2E095
:100B1800F0E0E417F50759F40E945E06A091D103AE
:100B28000E940807A091D103AF5F0E942107E1E06E
:100B3800F0E0E417F50731F40E945E06A091D103B6
:100B48000E94270700E0053048F410E01F3F20F41A
:100B58000E947D061F5FFACF0F5FF5CF57C0E09167
:100B6800D003E03009F052C0E4E0F0E0E417F50704
:100B7800B1F40E94ED060E941A070E945E06A0E0EA
:100B88000E940807A1E00E940E07A2E00E94140735
:100B98000E945E06A3E0DBDB620144245524E3E007
:100BA800F0E0E417F50779F40E94ED060E941A07B1
:100BB8000E945E06A0E00E940807A1E00E940E07BE
:100BC800A2E00E941407E2E0F0E0E417F50741F420
:100BD8000E945E06A0E00E940807A1E00E9421078B
:100BE800E1E0F0E0E417F50729F40E945E06A0E0D2
:100BF8000E94270700E0053048F410E01F3F20F46A
:100C08000E947D061F5FFACF0F5FF5CF03C031301A
:100C180009F4CDDDF3CEFFCFBA93AA931A9310E06F
:100C280010E0183010F5AF81B8850E943007EC5AF3
:100C3800FF4F0E943807AD81BE810E943007E45AF9
:100C4800FF4F0E943807AB81BC810E943007EC5AE5
:100C5800FF4F0E943F07A981BA810E943007E45ADA
:100C6800FF4F0E943F071F5FDCCF18812996089528
:100C7800BA93AA93B981A881109631F0FC81EB81CF
:100C88006A8161931197E9F7EB81FC8125960895B4
:100C9800E881A981BA81F0E0AE0FBF1FAC91089539
:100CA800E6EDF3E0FA93EA93E0E0EA93A4E0B0E03B
:100CB8000C943C06EAEDF3E0FA93EA930895E0E039
:100CC800EA93A4E0B0E00C943C06E091DB05EF5F0A
:100CD800E093DB050895E0EDF2E03F01E0E6F2E0A5
:100CE8004F01E0E6F2E05F01E0E6F2E06F0100E0CC
:100CF80008957A926A929A928A92BA92AA92D601A0
:100D08000C941006E0E1F3E03F01E0EDF2E04F0162
:100D1800E0E6F2E05F01E0E6F2E06F0100E008954E
:100D2800E0E2F3E03F01E0E1F3E04F01E0EDF2E063
:100D38005F01E0E6F2E06F0100E00895E0ECF2E028
:100D48003F01E0E2F3E04F01E0E1F3E05F01E0EDB5
:100D5800F2E06F0100E008953F01E0ECF2E04F019E
:100D6800E0E2F3E05F01E0E1F3E06F0100E0089505
:100D78003F01E0E6F2E04F010895E0ECF2E05F01A8
:100D8800E0E2F3E06F0100E00895E0EDF2E03F01FA
:100D9800E8E0F3E04F010895E0E6F3E03F01E0ED1D
:100DA800F2E04F01E8E0F3E05F010895E0E6F2E0E9
:100DB8006F0100E00895E0E6F2E03F01E0E6F3E0CD
:100DC8004F01E0EDF2E05F01E8E0F3E06F0100E0E1
:100DD8000895E0E6F2E0CCCFE0E6F3E05F01E0ED75
:100DE800F2E06F0100E00895E0E6F2E05F01E0E67E
:100DF800F3E06F0100E00895E0E6F2E05F01E0E66D
:100E0800F2E06F0110E008950E94AB013201442422
:100E1800552450CF0E94AB014201442455244ACFA7
:100E28000E94AB015201442455240895E0E6F2E003
:100E38005F01E0E6F2E06F0108950E94AB01420114
:100E480044245524F3CF0E94AB0132014424552495
:100E5800E0E6F2E04F01EACFEE27A10FBE1FEC91CA
:100E6800E5BBE12FF0E00895E491EBBBE0E0E5BBE2
:100E7800EFEFEBBB0895E491E061EBBBE0E0E5BB8D
:100E8800EFEFEBBB0895F695E795F695E79508958E
:00000001FF
