:100000000C9415020C9442020C9400000C94000015
:100010000C9400000C9400000C9400000C94000060
:100020000C9400000C9400000C9400000C94000050
:100030000C9400000C9400000C9400000C94000040
:100040000C9400000C9400000C9400000C94000030
:100050000C94000005072060000000000000005F15
:1000600000000007000700147F147F14242A7F2A51
:10007000122313086462364955225000050300001C
:10008000001C2241000041221C00082A1C2A0808EA
:10009000083E080800503000000808080808003032
:1000A00030000020100804023E5149453E00427FC6
:1000B000400042615149462141454B311814127F9D
:1000C0001027454545393C4A494930017109050326
:1000D0003649494936064949291E0036360000008E
:1000E000563600000008142241141414141441223E
:1000F0001408000201510906324979413E7E11116E
:10010000117E7F494949363E414141227F4141228A
:100110001C7F494949417F090901013E4141513252
:100120007F0808087F00417F41002040413F017F58
:10013000081422417F404040407F0204027F7F0438
:1001400008107F3E4141413E7F090909063E415169
:10015000215E7F09192946464949493101017F013C
:10016000013F4040403F1F2040201F7F2018207F3C
:100170006314081463030478040361514945430080
:10018000007F4141020408102041417F0000040229
:100190000102044040404040000102040020545449
:1001A00054787F48444438384444442038444448D0
:1001B0007F3854545418087E090102081454543CE2
:1001C0007F0804047800447D40002040443D000046
:1001D0007F10284400417F40007C041804787C088C
:1001E00004047838444444387C1414140808141463
:1001F000187C7C080404084854545420043F4440AC
:10020000203C4040207C1C2040201C3C4030403C96
:1002100044281028440C5050503C4464544C440032
:100220000836410000007F0000004136080002014E
:100230000204027F4141417F0000010002000300EF
:100240000400050006000700080009000A000B0072
:100250000C000D000E000F00000103070F1F3F7F71
:10026000FF001027E80364000A00010000100001ED
:10027000100001000010000000000000010001005B
:1002800021004000240020002C002E005E002500EC
:100290002600300041004200430044004500460073
:1002A0004700480049004A004B004C004D004E00FA
:1002B0004F005000510052005300540055005600AA
:1002C0005700580059005A002A002300310032001C
:1002D00033003400350036003700380039000100A3
:1002E0002D4E414E00494E460000080004007402A5
:1002F0000100E9037C020100F5037E0202006002B6
:100300008002020062028202020064028402020091
:100310006602860202006802860202006A02880201
:1003200002006C028A0202006E028C02020070025D
:100330008E02020072029002020074029202020017
:100340007602940202007802960202007A02980273
:1003500002007C029A0202007E029C0202008002DD
:100360009E0202008202A00202008402A202020097
:100370008602A40202008802A60202008A02A802E3
:1003800002008C02AA0202008E02AC02020090025D
:10039000AE0202009202B00202009402B202020017
:1003A0009602B40202009802B60202009A02B80253
:1003B00002009C02BA0202009E02BC020200A002DD
:1003C000BE020200A202C0020200A402C202020097
:1003D000A602C4020200A802C6020200AA02C802C3
:1003E0000200AC0292020200AE02CA020200B00297
:1003F000CC020200B202CE020200B402D00202001D
:10040000B602D2020200B802D4020200BA02D60238
:100410000200BC02D8020200BE02DA020200C002E0
:10042000DC020100FA03DE020000F894EE27ECBBC8
:10043000F1E0FBBFEBBFE5BF8DE0A2E0BB27ED9392
:100440008A95E9F780E098E0A0E6ED930197E9F757
:10045000EAEEF2E085919591009761F0A591B59152
:1004600005901590BF01F00105900D920197E1F7FD
:10047000FB01F0CFEFE5EDBFE8E0EEBFC0E6D2E074
:100480000C94A3020A921A92FA926A937A938A932C
:100490009A93AA93BA93EA93FA93EFB7EA930E94D6
:1004A000CC0D10E00AE03AE0E3B3EF701E2F1E30EF
:1004B00009F430E01D3009F431E01B3009F432E07A
:1004C000173009F433E0A4E1B0E00E94720DEFEEC2
:1004D0000E94100C11F000E011C0EFED0E94100C12
:1004E00011F001E00BC0EFEB0E94100C11F002E0E4
:1004F00005C0EFE70E94100C09F003E0E32FF0E0E5
:100500000E948C0DE85CFD4FDF01E02FF0E0EE0F64
:10051000FF1FEA0FFB1F5490EFE0E5BBE1E04E2E1A
:10052000829BFECF0E94D30D2496E991EFBFF991F3
:10053000E991B991A9919991899179916991F990EC
:100540001990099018952697E0EFE4BBEFE0E5BB22
:100550008898899A8A98E0E0EBB9E8E1EAB9E6E898
:10056000E0BDE0E0E0BDE3E3E9B9E4E5F0E0E88325
:10057000F983E0E0EA83EB83EC83ED83DE010E9404
:100580008A07EBB7E064EBBFE0E0E5BFE4BFE0E47F
:10059000EABF7894E1E0E41551F4A091E903A130B9
:1005A00009F407D0E091E903E03009F414D3F2CF65
:1005B000FFCFE52DF0E0E230A0E0FA0749F5442452
:1005C000E1E06E2E772041F48A92BA92A0E6B2E082
:1005D0000E943C0BE1E29E2EE1E0E71541F48A9295
:1005E000BA92A2E6B2E00E943C0BE0E49E2EE2E06A
:1005F000E71541F48A92BA92A4E6B2E00E943C0B5D
:10060000E4E29E2E7394E2E0E71508F47724E2C258
:10061000E130A0E0FA0709F56620A9F4E6E08E0EC5
:100620000E94180CA6E6B2E00E943C0BE0E29E2E6F
:10063000E0E8E81538F48824E5E0BE0EE0E4EB15C8
:1006400008F4BB2409C044248A92BA92A8E6B2E016
:100650000E943C0BE0E29E2EBDC23097A1F54424DF
:10066000E1E06E2EAA2041F48A92BA92AAE6B2E0A4
:100670000E943C0BECE29E2EE1E0EA1541F48A92E6
:10068000BA92ACE6B2E00E943C0BEEE29E2EE2E0B3
:10069000EA1541F48A92BA92AEE6B2E00E943C0BAF
:1006A000EEE59E2EE3E0EA1541F48A92BA92A0E7C5
:1006B000B2E00E943C0BE5E29E2EA394E3E0EA1533
:1006C00008F4AA2487C2E430A0E0FA07F1F4442435
:1006D000E1E06E2EDD2041F48A92BA92A2E7B2E008
:1006E0000E943C0BE6E29E2EE1E0ED1541F48A9279
:1006F000BA92A4E7B2E00E943C0BE0E39E2ED394B2
:10070000E1E0ED1508F4DD2465C2E530A0E0FA076C
:1007100049F54424E1E06E2ECC2041F48A92BA924D
:10072000A6E7B2E00E943C0BE1E49E2EE1E0EC156E
:1007300041F48A92BA92A8E7B2E00E943C0BE2E44C
:100740009E2EE2E0EC1541F48A92BA92AAE7B2E05A
:100750000E943C0BE3E49E2EC394E2E0EC1508F407
:10076000CC2438C2E630A0E0FA07A1F54424E1E049
:100770006E2EE091DF02E03041F48A92BA92ACE74B
:10078000B2E00E943C0BE4E49E2EA091DF02A13077
:1007900041F48A92BA92AEE7B2E00E943C0BE5E4E3
:1007A0009E2EA091DF02A23041F48A92BA92A0E874
:1007B000B2E00E943C0BE6E49E2EE091DF02EF5F88
:1007C000E093DF02A091DF02A33018F0E0E0E093B5
:1007D000DF0200C2E830A0E0FA07A1F54424E1E01E
:1007E0006E2EE091E002E03041F48A92BA92A2E8E3
:1007F000B2E00E943C0BE7E49E2EA091E002A13003
:1008000041F48A92BA92A4E8B2E00E943C0BE8E478
:100810009E2EA091E002A23041F48A92BA92A6E8FC
:10082000B2E00E943C0BE9E49E2EE091E002EF5F13
:10083000E093E002A091E002A33018F0E0E0E09342
:10084000E002C8C1E930A0E0FA07A1F54424E1E0E4
:100850006E2EE091E102E03041F48A92BA92A8E86B
:10086000B2E00E943C0BEAE49E2EA091E102A1308E
:1008700041F48A92BA92AAE8B2E00E943C0BEBE4FF
:100880009E2EA091E102A23041F48A92BA92ACE885
:10089000B2E00E943C0BECE49E2EE091E102EF5F9F
:1008A000E093E102A091E102A33018F0E0E0E093D0
:1008B000E10290C1EA30A0E0FA07A1F54424E1E0AA
:1008C0006E2EE091E202E03041F48A92BA92AEE8F4
:1008D000B2E00E943C0BEDE49E2EA091E202A1301A
:1008E00041F48A92BA92A0E9B2E00E943C0BEEE495
:1008F0009E2EA091E202A23041F48A92BA92A2E91D
:10090000B2E00E943C0BEFE49E2EE091E202EF5F2A
:10091000E093E202A091E202A33018F0E0E0E0935D
:10092000E20258C1EC30A0E0FA0709F040C04424CC
:10093000E1E06E2EE091E302E03041F48A92BA9257
:10094000A4E9B2E00E943C0BE0E59E2EA091E302F8
:10095000A13041F48A92BA92A6E9B2E00E943C0B1F
:10096000E1E59E2EA091E302A23041F48A92BA9270
:10097000A8E9B2E00E943C0BE2E59E2EA091E302C2
:10098000A33041F48A92BA92AAE9B2E00E943C0BE9
:10099000E3E59E2EE091E302EF5FE093E302A09196
:1009A000E302A43018F0E0E0E093E30213C1ED307D
:1009B000A0E0FA07A1F54424E1E06E2EE091E40204
:1009C000E03041F48A92BA92ACE9B2E00E943C0B6A
:1009D000E4E59E2EA091E402A13041F48A92BA92FD
:1009E000AEE9B2E00E943C0BE5E59E2EA091E40248
:1009F000A23041F48A92BA92A0EAB2E00E943C0B83
:100A0000E6E59E2EE091E402EF5FE093E402A09120
:100A1000E402A33018F0E0E0E093E402DBC0EE3043
:100A2000A0E0FA0709F040C04424E1E06E2EE09116
:100A3000E502E03041F48A92BA92A2EAB2E00E9462
:100A40003C0BE7E59E2EA091E502A13041F48A928D
:100A5000BA92A4EAB2E00E943C0BE8E59E2EA09177
:100A6000E502A23041F48A92BA92A6EAB2E00E946C
:100A70003C0BE9E59E2EA091E502A33041F48A9259
:100A8000BA92A8EAB2E00E943C0BEAE59E2EE09101
:100A9000E502EF5FE093E502A091E502A43018F0D3
:100AA000E0E0E093E50296C0E730A0E0FA0709F045
:100AB00052C00E941E0C0E942E0CB0E0AE17BF0761
:100AC00078F50E942E0C0E94350C11F40E943C0C0B
:100AD000A091F603A13011F40E94490C0E94560C1B
:100AE000A1F00E94630C21F40E946A0C0E94700C19
:100AF000A091F603A13021F40E94810C0E94870C82
:100B00000E94980CE093F50305C0E091F303EF5FBA
:100B1000E093F303E091F203EF5FE093F203CBCFB6
:100B2000A8EEB2E00E947E0B349728F4E0E0E09358
:100B3000F603E1E002C00E94980CE093F503E0E0C8
:100B4000E093F4030E94810C0E94A30C0E946A0CA3
:100B50000E94A30C3FC0EB30A0E0FA0749F50E94C9
:100B6000A90C0E94AF0C0E94B40CA091E602A13027
:100B700051F4E0E0E093E602E091E7028E0EE0E05F
:100B8000E093E70214C0E1E0E61589F4E6E08E0E9A
:100B90000E94A90C0E94BD0CE0E8E81538F48824F6
:100BA000E6E0BE0EE0E4EB1508F4BB24662412C0B8
:100BB000EF30A0E0FA0739F40E94D10C0E94DA0C61
:100BC0000E94BD0C07C0E330A0E0FA0719F44424EA
:100BD0000E94E00C0895E52DF0E0E230A0E0FA0775
:100BE00049F40E94180CAAEAB2E00E943C0BEAE227
:100BF0009E2E0CC1E130A0E0FA0749F40E94180CC7
:100C0000ACEAB2E00E943C0BE0E39E2EFFC03097BE
:100C100049F40E94180CAEEAB2E00E943C0BE3E2F9
:100C20009E2EF4C0E430A0E0FA0749F40E94180CAC
:100C3000A0EBB2E00E943C0BE1E39E2EE7C0E53062
:100C4000A0E0FA0749F40E94180CA2EBB2E00E945F
:100C50003C0BE2E39E2EDAC0E630A0E0FA0749F44E
:100C60000E94180CA4EBB2E00E943C0BE3E39E2E22
:100C7000CDC0E830A0E0FA0749F40E94180CA6EBBA
:100C8000B2E00E943C0BE4E39E2EC0C0E930A0E03D
:100C9000FA0749F40E94180CA8EBB2E00E943C0B42
:100CA000E5E39E2EB3C0EA30A0E0FA0749F40E94C3
:100CB000180CAAEBB2E00E943C0BE6E39E2EA6C005
:100CC000EC30A0E0FA0749F40E94180CACEBB2E05B
:100CD0000E943C0BE7E39E2E99C0ED30A0E0FA079E
:100CE00049F40E94180CAEEBB2E00E943C0BE8E322
:100CF0009E2E8CC0EE30A0E0FA0749F40E94180C3A
:100D0000A0ECB2E00E943C0BE9E39E2E7FC0E330F2
:100D1000A0E0FA0719F40E94E00C78C0E730A0E0E8
:100D2000FA0709F04EC00E941E0C0E942E0CB0E083
:100D3000AE17BF0758F50E942E0C0E94350C11F417
:100D40000E943C0CA091F603A13011F40E94490CC2
:100D50000E94560C81F00E94630C21F40E946A0CE0
:100D60000E94700CA091F603A13021F40E94810C26
:100D70000E94870C05C0E091F303EF5FE093F3035B
:100D8000E091F203EF5FE093F203CFCFA8EEB2E081
:100D90000E947E0B349728F4E0E0E093F603E1E054
:100DA00002C00E94980CE093F503E0E0E093F403A6
:100DB0000E94810C0E94A30C0E946A0C0E94A30C4A
:100DC00025C0EB30A0E0FA07C9F40E94A90C0E94EC
:100DD000AF0C0E94B40CE1E0E61579F4E6E08E0E6B
:100DE0000E94A90CE0E8E81538F48824E6E0BE0E7D
:100DF000E0E4EB1508F4BB24662408C0EF30A0E063
:100E0000FA0721F40E94D10C0E94DA0C0895000028
:100E1000C09A00000895C098C498C59808951A9380
:100E2000F6DF19B3C098E12F19910895AA931A9388
:100E3000E0E0EABBC19AC298E981EF5F1E2F10FF84
:100E400002C0C49A01C0C49811FF02C0C59A01C073
:100E5000C598E5DFE078E9F718810C94A80BAA9310
:100E6000A981E4DF0E94E90C0C94A80BE091F8033F
:100E7000EA93E091F703EF73E064AE2FF0DFE091C7
:100E8000F803EA93E091F903E86BAE2FE8DF0895E9
:100E9000AA93E981E093F703E295EF70E695E69572
:100EA000E093F803E881E093F903E0DF0C94A80BEA
:100EB000A091F703AF5FA093F703A03818F0E0E02C
:100EC000E093F703E091F703EF7331F4E091F70358
:100ED000EA93A091F903DCDF0895AA93A091F803A7
:100EE000A5DFC29A0E94E90C0C945E0BA091F80356
:100EF0009DDFE0E0EABBC19AC29A91DF0895AA9310
:100F0000E981EA93E9810E94F20CF0DFAFDFEEDFC6
:100F10000C94A80BBA93AA931A93B89AB99ABA9A4E
:100F2000BB9AC39ABC9ABD9A76DFC398A4E6B0E098
:100F30000E94720DC39A10E0123040F41A93AFE38E
:100F40008EDF1A931395A0EC8ADFF6CFE1E0E093F1
:100F5000C202E0E0E093C302E981FA813097A9F090
:100F6000A981BA810E94A50DE093C602F093C70241
:100F700012960E94A50DE093DB02F093DC02A9819A
:100F8000BA8114960E94A50D0AC0E0E0F0E0E0935B
:100F9000C602F093C702E093DB02F093DC02E09319
:100FA000DD02F093DE02E1E0E093C802E093C902C3
:100FB000E093CA02EFEFE093CB02E1E0E093D202CC
:100FC000E3EDF2E0FA93EA93EFEFEA93A8E0B0E002
:100FD0000E946E0B04D0E1E018810C94EF0B0E948C
:100FE000CC0D00E030E0E091C302E03009F00FEFFB
:100FF000383078F4E0E0EA93A32F3F5F49DF10E058
:10100000A12F1F5FA03820F4A02F0E94F80CF8CF6A
:10101000EFCFE0E0EA93A0E03BDFE0E0EA93A0E07E
:101020003BD30E94D30D0C940E0CAA931A93ED811E
:10103000EA93AD8164DF1E2F19DFE981E73011F0FB
:10104000E83039F4EB81EA93AA810E94AA0BEB8382
:1010500008C0E33021F4EB81E095EB8302C0E0307F
:1010600021F4EA81E0951E2302C0E23029F4EA81EE
:10107000AB81EA231E2B0EC0E13029F4EA81AB815B
:10108000EA231E2707C0E43029F4EA81E095AB810A
:10109000EA2B1E23A12F0E94F80C18812696089592
:1010A000AA9323970E94CA0DA889A03848F4AF8557
:1010B000A03430F4AE85A03019F0AD85A03009F42D
:1010C000C8C1EE85E887A889BB27EE85F0E0AE0FA2
:1010D000BF1FA138E0E0BE0720F0A889E0E8EA1BC6
:1010E000EE872D85AF85BB27ED85F0E0AE0FBF1FE6
:1010F000A134E0E0BE0720F0AF85E0E4EA1BED8715
:10110000A985A63009F05BC0EC85E13009F4A1C1E6
:10111000E33039F4E091DD02F091DE02309709F41A
:1011200098C10885ED85E695E695E6953E2FE22F78
:10113000E77019F4AD852A17E9F0A02FBB27E32F3C
:10114000F0E00E949D0DAA85BB850E94FC0C2695AF
:1011500026952695532F5F935F5FE22FAF91EA1795
:1011600048F0102FE12F1150E03019F00E94010DCE
:10117000F9CFF1CFAE850A1711F1EE85AA85BB85AF
:10118000F0E00E94FC0CED85E77009F03F5F20E085
:101190002F932F5FE32FAF91AE1788F41E851F9317
:1011A0001F5FE02FAF91AE1718F40E94010DF7CF2B
:1011B000EE85AE81BF81F0E00E94FC0CE9CFEF85A7
:1011C000E7703E2FED85E03009F443C1EA85FB85E9
:1011D000EE83FF8310E00889303009F065C0AD85EB
:1011E000A83008F45CC0E985E03011F0E33009F480
:1011F00002C0E73009F402C0E83009F402C0E6306A
:1012000009F402C0E93009F402C0EA3021F40A937B
:10121000E8890E94F20C1F931F5FEE85AF91AE1715
:10122000B8F5A985A63061F461DE20DE0E940E0DBE
:10123000FA93EA935BDEAE2F0E94F10B39DE27C0F2
:10124000E985E93011F450E00EC0EA3011F45FEFA7
:101250000AC00E940E0D0E94170D5E2FE985E7302F
:1012600011F0E83021F40E941D0D5E2F06C0E3301E
:1012700011F4509502C0E03021F4A52F0E94F80C23
:1012800006C00E94210DEFEFEA93AD85CEDEC3CFFD
:10129000EF85E85FEF87ED85E850ED87D1C05D858C
:1012A00020E0E0E0ED877AC0E32FAD85AE0FA930F6
:1012B00020F42D85E0E0ED8703C0E8E0E31B2E2F4E
:1012C0003A93A22F0E949F0B4E2FE985E630F1F44E
:1012D0001F931F5FEE85AF91AE17B8F40E94270DE4
:1012E000AE2FE32F0E94840D0E942E0DE32FA42F1A
:1012F0000E94840DE095E1215E2B0E940E0DFA9371
:10130000EA93A52F0E94F10BE3CF2CC0E93011F432
:1013100050E003C0EA30A9F45FEF0E941D0DAE2F2C
:10132000E32F0E947C0D5E2F1F931F5FEE85AF9110
:10133000AE1730F40E94210D4A93A0E076DEF4CF80
:1013400011C01F931F5FEE85AF91AE1758F40E9436
:10135000390DAE2FE32F0E947C0DEA934A93AD85A1
:1013600064DEEFCFED85E03009F473C0AD85A830C1
:1013700028F4ED85E21B5E2FE0E003C0532FED85DE
:10138000E850ED8710E0EF85E85FEF87E8E0E31BCA
:101390002E2F0889EA85FB85EE83FF83E52FF0E099
:1013A000E85AFD4F4491E985E630F1F41F931F5F41
:1013B000EE85AF91AE17B8F40E94270DAE2FE22F45
:1013C0000E947C0D0E942E0DE22FA42F0E947C0D06
:1013D000E095E1215E2B0E940E0DFA93EA93A52F72
:1013E0000E94F10BE3CF2CC0E93011F450E003C0B0
:1013F000EA30A9F45FEF0E941D0DAE2FE22F0E948C
:10140000840D5E2F1F931F5FEE85AF91AE1730F4F2
:101410000E94210D4A93A0E008DEF4CF11C01F9373
:101420001F5FEE85AF91AE1758F40E94390DAE2FB5
:10143000E22F0E94840DEA934A93AD85F6DDEFCF4B
:10144000E885AA85BB85F0E0EA0FFB1FEA87FB87EA
:10145000B9CE0E94D10D619608950E94460D24F0E8
:10146000E0E0F0E00C94A80BA881B981A038E0E09E
:10147000BE0724F0EFE7F0E00C94A80BE881F981B7
:101480000C94A80B0E94460D24F0E0E0F0E00C94D0
:10149000A80BA881B981A034E0E0BE0724F0EFE3F7
:1014A000F0E00C94A80BE881F9810C94A80BBA9396
:1014B000AA9323970E944D0D8F01002E012A19F443
:1014C000E0E0F0E05FC00E94540D0F820E94540DD6
:1014D0000E820E94540D0886EB85A885EA1718F441
:1014E000E0E0F0E04FC0F8010F5F1F4F5491A88576
:1014F000BB27EE27A50FBE1FEB85F0E0EA17FB0721
:1015000018F0E0E0F0E03EC0EE81E695E695E69565
:101510004E2FEE81E77009F04F5FEF81E030A1F0D0
:10152000A985BA85EC93A885EB85EA1BF0E0DF017D
:10153000EF81F0E00E949D0DDF01E42FF0E00E94BA
:101540009D0DE00FF11F1EC09801E52FF0E00E0F7A
:101550001F1FA885AF5FA887A150EB85AE1760F469
:10156000F9012F5F3F4FA491B0E0E42FF0E00E941B
:101570009D0D0E0F1F1FEDCFF901E491A985BA85CE
:10158000EC93F8010E94D10D2C960895E0E0E093D1
:10159000C402A091C502BB270E94590DF0E0AE0F16
:1015A000BF1FE091C902F0E0AE0FBF1F6BDFE093F9
:1015B000C5020895AA9321970E944D0D309709F412
:1015C00055C0AF81AA3009F44FC0EF81EA93DE0124
:1015D00017966DDFAF01309709F44AC0E091C80259
:1015E000AE81EA0F3E2FA091C402BB27F0E0EA0FC4
:1015F000FB1F8F010138E0E01E0718F0032F1127B1
:10160000C5DFE091C402EA93E091C502EA93E88560
:10161000EA930E94590DEA93E1E0EA935A934A93C0
:10162000A7E03EDDE091C402AE81EA0FEA93E091CB
:10163000C502EA93E091C802EA930E94590D0E9404
:10164000600DE091C402EA93A091C5020E94590D79
:10165000EA0FEA933A93E091C9020E94600DE0E834
:10166000F0E0E017F10711F491DF02C00093C4022B
:101670000E94D10D28960895BA93AA931A93EC81EB
:10168000EA93AC8109D00E946A0D19F0A12F92DF74
:10169000FACF18810C947C0BAA93A981BB27DDDEBD
:1016A000E093C402A881BB27EDDEE093C5020C9451
:1016B000A80BAA935D9BFECFE881ECB92196089513
:1016C000BA93AA931A930E946A0D19F0A12FF1DF21
:1016D000FACFAAE0EEDF18810C94EF0BBA93AA932D
:1016E000B981A881109631F0FC81EB816A81619308
:1016F0001197E9F7EB81FC8125960895BA93AA9397
:10170000A991B991EE27FF276D91662311F03196CB
:10171000FBCF0895AA937991E991F991A991B99193
:10172000CD016D916623E9F711977C93772329F01A
:101730007A9561916D936623C1F7FC010895AA9390
:10174000E881F0E0E85AFD4FA491E9810E947C0D08
:1017500022960895AA931A93E981E73011F0EA30AE
:1017600019F41091C20209C0E93019F41091C302B2
:1017700004C0E830A1F41091D202E091C302E0303D
:1017800049F0103019F0EFEF188129C0EA81E09597
:10179000188125C0103019F4E0E0188120C0EA81DA
:1017A00018811DC0BA93AA93EA81E13021F4E8813F
:1017B000F981E49114C0E23029F4A881B9810E9432
:1017C000A90D0DC0E33041F4A881B981E091DB029D
:1017D000F091DC02099503C0A881B981EC912396B0
:1017E0000895AA93EB81E03029F4E881A981BA81B8
:1017F000EC9314C0E23031F4E881A981BA810E94EF
:10180000B50D0CC0E33051F4E981FA81FA93EA9303
:10181000AA81E091DD02F091DE02099524960895F7
:10182000E5BB85E88A95F1F7E3B3EF70EF300895F3
:101830004424E1E06E2E8A92BA9208950E94EF0746
:101840004424E0E0EA93EA93A8EEB2E00E943C0B65
:10185000E0E0E093F303E093F2030895A8EEB2E032
:101860000E947E0BA091F2030895EA1BE093F4031B
:10187000A091F503A1300895A091F303B0E0A65123
:10188000BC4FE091F203F0E0E851FD4FE081EC93B2
:101890000895A091F303B0E0A251BC4FE091F20390
:1018A000F0E0E851FD4FE081EC930895A091F3033F
:1018B000E3E00E94930D0E2EA091F403E2E00E945B
:1018C000980DE0290895E0E0E093F303A091F5037B
:1018D000A1300895A1E00E94590BABE70C94590B7D
:1018E000AAEEB3E00E94600BADE70E94590BEAEE4E
:1018F000F3E0FA93EA93E0E0EA93A4E0B0E00C941A
:101900006E0BA2E00E94590BABE70C94590BAEEEA4
:10191000B3E00E94600BADE70E94590BEEEEF3E0DE
:10192000FA93EA93E0E0EA93A4E0B0E00C946E0B43
:10193000A091F603E1E0EA1BE093F603A091F50322
:10194000E1E0EA1B0895AFEF0E94590BADE70C945C
:10195000590BE091E803EF5FE093E8030895E8EEA8
:10196000F2E0FA93EA930895E9E0F0E0FA93EA935B
:10197000A1E00E948A0B442408957724AA24DD2440
:10198000CC24E0E0E093DF02E093E002E093E102A8
:10199000E093E202E093E302E093E402E093E502E5
:1019A000089544240E94EF078824BB24E0E0E093DC
:1019B000E803D5CFE0E0EA93A4E6B0E00C946E0B28
:1019C000A091E903E1E0EA1BE093E903E0E15E2E88
:1019D0000895C198EFEFEABBE881EBBB0E940707CF
:1019E0000C940B07E695E695E695AE2F0C94480708
:1019F0000E946D070C945807EA0FFB1FEE83FF83CC
:101A00000895EC85EA93EF81F8853196EF83F887A6
:101A10003197FA93EA93A0E00C94F10BEC85EA93EA
:101A2000EF81F8853196EF83F8873197089566271F
:101A30007727DF01CB010C94D20B5A93AA850C9423
:101A4000AA0B0A930395E889EA935A9308950A9397
:101A50000395A8890E947F07E42308955E2FEC85F3
:101A6000EA93AF81B885882799270E94D20B1E2E52
:101A700008950A930395E889EA93EE85EA93E98548
:101A8000FA853196E987FA873197D1CFBA93AA932D
:101A9000A881B9810E94C60D08950E94CA0DE091E7
:101AA000C602F091C7020895F8010F5F1F4F04901E
:101AB0000895E091C602F091C7023196E49108952D
:101AC000EA93E0E0EA93E0E0F0E0FA93EA93A9E039
:101AD0000C945008A981BA81ED91A983BA831E2F75
:101AE000E0300895109639F080ED97E00197F1F716
:101AF000A8951197C9F70895EE230E2EEA2F19F035
:101B0000EE0F0A94E9F70895EE230E2EEA2F19F04E
:101B1000E6950A94E9F70895EE0FFF1FEE0FFF1FF9
:101B2000EE0FFF1F0895AE17E1E008F4EE270895C9
:101B3000AE17E1E008F0EE270895FA9FF02DEB9F35
:101B4000F00DEA9FE02DF10D0895ED91FC911197B4
:101B50000895E199FECFFF93FFB7F894AEBBBFBBEA
:101B6000E09AEDB3FFBFFF910895E19B02C0A895F5
:101B7000FCCF9FB7F894AEBBBFBBE09A8DB3E8171C
:101B800019F0EDBBE29AE19A9FBF089500240A166E
:101B90000B0608955A934A933A932A931A930A93F9
:101BA00008955D814C813B812A81198108810895C6
:00000001FF
